{
  "address": "0x2e7406166c29ed4D6017Ab9B78B225f1707dF459",
  "abi": [
    {
      "inputs": [
        {
          "internalType": "contract IPriceProvidersRepository",
          "name": "_priceProvidersRepository",
          "type": "address"
        },
        {
          "internalType": "address",
          "name": "_emergencyManager",
          "type": "address"
        },
        {
          "internalType": "contract AggregatorV3Interface",
          "name": "_quoteAggregator",
          "type": "address"
        },
        {
          "internalType": "uint256",
          "name": "_quoteAggregatorHeartbeat",
          "type": "uint256"
        }
      ],
      "stateMutability": "nonpayable",
      "type": "constructor"
    },
    {
      "inputs": [],
      "name": "AggregatorDidNotChange",
      "type": "error"
    },
    {
      "inputs": [],
      "name": "AggregatorPriceNotAvailable",
      "type": "error"
    },
    {
      "inputs": [],
      "name": "AssetNotSupported",
      "type": "error"
    },
    {
      "inputs": [],
      "name": "EmergencyManagerDidNotChange",
      "type": "error"
    },
    {
      "inputs": [],
      "name": "EmergencyThresholdNotReached",
      "type": "error"
    },
    {
      "inputs": [],
      "name": "FallbackProviderAlreadySet",
      "type": "error"
    },
    {
      "inputs": [],
      "name": "FallbackProviderDidNotChange",
      "type": "error"
    },
    {
      "inputs": [],
      "name": "FallbackProviderNotSet",
      "type": "error"
    },
    {
      "inputs": [],
      "name": "HeartbeatDidNotChange",
      "type": "error"
    },
    {
      "inputs": [],
      "name": "InvalidAggregator",
      "type": "error"
    },
    {
      "inputs": [],
      "name": "InvalidAggregatorDecimals",
      "type": "error"
    },
    {
      "inputs": [],
      "name": "InvalidFallbackPriceProvider",
      "type": "error"
    },
    {
      "inputs": [],
      "name": "InvalidHeartbeat",
      "type": "error"
    },
    {
      "inputs": [],
      "name": "NotSupported",
      "type": "error"
    },
    {
      "inputs": [],
      "name": "OnlyEmergencyManager",
      "type": "error"
    },
    {
      "inputs": [],
      "name": "PriceError",
      "type": "error"
    },
    {
      "inputs": [],
      "name": "QuoteAggregatorHeartbeatDidNotChange",
      "type": "error"
    },
    {
      "anonymous": false,
      "inputs": [
        {
          "indexed": true,
          "internalType": "address",
          "name": "asset",
          "type": "address"
        },
        {
          "indexed": true,
          "internalType": "contract AggregatorV3Interface",
          "name": "aggregator",
          "type": "address"
        }
      ],
      "name": "AggregatorDisabled",
      "type": "event"
    },
    {
      "anonymous": false,
      "inputs": [
        {
          "indexed": true,
          "internalType": "address",
          "name": "asset",
          "type": "address"
        },
        {
          "indexed": true,
          "internalType": "contract AggregatorV3Interface",
          "name": "aggregator",
          "type": "address"
        },
        {
          "indexed": false,
          "internalType": "bool",
          "name": "convertToQuote",
          "type": "bool"
        }
      ],
      "name": "NewAggregator",
      "type": "event"
    },
    {
      "anonymous": false,
      "inputs": [
        {
          "indexed": true,
          "internalType": "address",
          "name": "emergencyManager",
          "type": "address"
        }
      ],
      "name": "NewEmergencyManager",
      "type": "event"
    },
    {
      "anonymous": false,
      "inputs": [
        {
          "indexed": true,
          "internalType": "address",
          "name": "asset",
          "type": "address"
        },
        {
          "indexed": true,
          "internalType": "contract IPriceProvider",
          "name": "fallbackProvider",
          "type": "address"
        }
      ],
      "name": "NewFallbackPriceProvider",
      "type": "event"
    },
    {
      "anonymous": false,
      "inputs": [
        {
          "indexed": true,
          "internalType": "address",
          "name": "asset",
          "type": "address"
        },
        {
          "indexed": false,
          "internalType": "uint256",
          "name": "heartbeat",
          "type": "uint256"
        }
      ],
      "name": "NewHeartbeat",
      "type": "event"
    },
    {
      "anonymous": false,
      "inputs": [
        {
          "indexed": false,
          "internalType": "uint256",
          "name": "heartbeat",
          "type": "uint256"
        }
      ],
      "name": "NewQuoteAggregatorHeartbeat",
      "type": "event"
    },
    {
      "inputs": [],
      "name": "EMERGENCY_PRECISION",
      "outputs": [
        {
          "internalType": "uint256",
          "name": "",
          "type": "uint256"
        }
      ],
      "stateMutability": "view",
      "type": "function"
    },
    {
      "inputs": [],
      "name": "EMERGENCY_THRESHOLD",
      "outputs": [
        {
          "internalType": "uint256",
          "name": "",
          "type": "uint256"
        }
      ],
      "stateMutability": "view",
      "type": "function"
    },
    {
      "inputs": [
        {
          "internalType": "address",
          "name": "",
          "type": "address"
        }
      ],
      "name": "assetData",
      "outputs": [
        {
          "internalType": "uint256",
          "name": "heartbeat",
          "type": "uint256"
        },
        {
          "internalType": "bool",
          "name": "forceFallback",
          "type": "bool"
        },
        {
          "internalType": "bool",
          "name": "convertToQuote",
          "type": "bool"
        },
        {
          "internalType": "contract AggregatorV3Interface",
          "name": "aggregator",
          "type": "address"
        },
        {
          "internalType": "contract IPriceProvider",
          "name": "fallbackProvider",
          "type": "address"
        }
      ],
      "stateMutability": "view",
      "type": "function"
    },
    {
      "inputs": [
        {
          "internalType": "address",
          "name": "_asset",
          "type": "address"
        }
      ],
      "name": "assetSupported",
      "outputs": [
        {
          "internalType": "bool",
          "name": "",
          "type": "bool"
        }
      ],
      "stateMutability": "view",
      "type": "function"
    },
    {
      "inputs": [
        {
          "internalType": "address",
          "name": "_asset",
          "type": "address"
        }
      ],
      "name": "emergencyDisable",
      "outputs": [],
      "stateMutability": "nonpayable",
      "type": "function"
    },
    {
      "inputs": [],
      "name": "emergencyManager",
      "outputs": [
        {
          "internalType": "address",
          "name": "",
          "type": "address"
        }
      ],
      "stateMutability": "view",
      "type": "function"
    },
    {
      "inputs": [
        {
          "internalType": "address",
          "name": "_asset",
          "type": "address"
        }
      ],
      "name": "getAggregatorPrice",
      "outputs": [
        {
          "internalType": "bool",
          "name": "success",
          "type": "bool"
        },
        {
          "internalType": "uint256",
          "name": "price",
          "type": "uint256"
        }
      ],
      "stateMutability": "view",
      "type": "function"
    },
    {
      "inputs": [
        {
          "internalType": "address",
          "name": "_asset",
          "type": "address"
        }
      ],
      "name": "getFallbackProvider",
      "outputs": [
        {
          "internalType": "contract IPriceProvider",
          "name": "",
          "type": "address"
        }
      ],
      "stateMutability": "view",
      "type": "function"
    },
    {
      "inputs": [
        {
          "internalType": "address",
          "name": "_asset",
          "type": "address"
        }
      ],
      "name": "getPrice",
      "outputs": [
        {
          "internalType": "uint256",
          "name": "",
          "type": "uint256"
        }
      ],
      "stateMutability": "view",
      "type": "function"
    },
    {
      "inputs": [],
      "name": "offChainProvider",
      "outputs": [
        {
          "internalType": "bool",
          "name": "",
          "type": "bool"
        }
      ],
      "stateMutability": "pure",
      "type": "function"
    },
    {
      "inputs": [],
      "name": "priceProviderPing",
      "outputs": [
        {
          "internalType": "bytes4",
          "name": "",
          "type": "bytes4"
        }
      ],
      "stateMutability": "pure",
      "type": "function"
    },
    {
      "inputs": [],
      "name": "priceProvidersRepository",
      "outputs": [
        {
          "internalType": "contract IPriceProvidersRepository",
          "name": "",
          "type": "address"
        }
      ],
      "stateMutability": "view",
      "type": "function"
    },
    {
      "inputs": [],
      "name": "quoteAggregatorHeartbeat",
      "outputs": [
        {
          "internalType": "uint256",
          "name": "",
          "type": "uint256"
        }
      ],
      "stateMutability": "view",
      "type": "function"
    },
    {
      "inputs": [],
      "name": "quoteToken",
      "outputs": [
        {
          "internalType": "address",
          "name": "",
          "type": "address"
        }
      ],
      "stateMutability": "view",
      "type": "function"
    },
    {
      "inputs": [
        {
          "internalType": "address",
          "name": "_asset",
          "type": "address"
        },
        {
          "internalType": "contract AggregatorV3Interface",
          "name": "_aggregator",
          "type": "address"
        },
        {
          "internalType": "bool",
          "name": "_convertToQuote",
          "type": "bool"
        }
      ],
      "name": "setAggregator",
      "outputs": [],
      "stateMutability": "nonpayable",
      "type": "function"
    },
    {
      "inputs": [
        {
          "internalType": "address",
          "name": "_emergencyManager",
          "type": "address"
        }
      ],
      "name": "setEmergencyManager",
      "outputs": [],
      "stateMutability": "nonpayable",
      "type": "function"
    },
    {
      "inputs": [
        {
          "internalType": "address",
          "name": "_asset",
          "type": "address"
        },
        {
          "internalType": "contract IPriceProvider",
          "name": "_fallbackProvider",
          "type": "address"
        }
      ],
      "name": "setFallbackPriceProvider",
      "outputs": [],
      "stateMutability": "nonpayable",
      "type": "function"
    },
    {
      "inputs": [
        {
          "internalType": "address",
          "name": "_asset",
          "type": "address"
        },
        {
          "internalType": "uint256",
          "name": "_heartbeat",
          "type": "uint256"
        }
      ],
      "name": "setHeartbeat",
      "outputs": [],
      "stateMutability": "nonpayable",
      "type": "function"
    },
    {
      "inputs": [
        {
          "internalType": "uint256",
          "name": "_heartbeat",
          "type": "uint256"
        }
      ],
      "name": "setQuoteAggregatorHeartbeat",
      "outputs": [],
      "stateMutability": "nonpayable",
      "type": "function"
    },
    {
      "inputs": [
        {
          "internalType": "address",
          "name": "_asset",
          "type": "address"
        },
        {
          "internalType": "contract AggregatorV3Interface",
          "name": "_aggregator",
          "type": "address"
        },
        {
          "internalType": "contract IPriceProvider",
          "name": "_fallbackProvider",
          "type": "address"
        },
        {
          "internalType": "uint256",
          "name": "_heartbeat",
          "type": "uint256"
        },
        {
          "internalType": "bool",
          "name": "_convertToQuote",
          "type": "bool"
        }
      ],
      "name": "setupAsset",
      "outputs": [],
      "stateMutability": "nonpayable",
      "type": "function"
    }
  ],
  "transactionHash": "0xb508e216519c294d2ea140ca70784bcce19d67379fdf830adf2bf3e57b780e90",
  "args": [
    "0xa40111994F44C8add82eF495269e19109c9A982A",
    "0x6d228Fa4daD2163056A48Fc2186d716f5c65E89A",
    "0x5f4eC3Df9cbd43714FE2740f5E3616155c5b8419",
    7200
  ],
  "numDeployments": 1,
  "solcInputHash": "57ceb55aef9380c72acb95e296ec95cc",
  "bytecode": "0x61014060405262000015620f4240606462000348565b620000239060001962000376565b610100523480156200003457600080fd5b5060405162001f7638038062001f768339810160408190526200005791620003b2565b838383838362000080816001600160a01b031663eec3e6a76200025160201b62000bde1760201c565b620000d15760405162461bcd60e51b815260206004820152601e60248201527f496e76616c6964507269636550726f76696465725265706f7369746f72790000604482015260640160405180910390fd5b6001600160a01b038116608081905260408051630217a4b760e41b8152905163217a4b70916004808201926020929091908290030181865afa1580156200011c573d6000803e3d6000fd5b505050506040513d601f19601f820116820180604052508101906200014291906200040c565b6001600160a01b031660a052506200015a83620002db565b5060a0516001600160a01b031663313ce5676040518163ffffffff1660e01b8152600401602060405180830381865afa1580156200019c573d6000803e3d6000fd5b505050506040513d601f19601f82011682018060405250810190620001c291906200042c565b60ff16610120526001600160a01b03821660c08190526040805163313ce56760e01b8152905163313ce567916004808201926020929091908290030181865afa15801562000214573d6000803e3d6000fd5b505050506040513d601f19601f820116820180604052508101906200023a91906200042c565b60ff1660e052600155506200047d95505050505050565b60006001600160a01b03831615801590620002d4575082826040518163ffffffff1660e01b8152600401602060405180830381865afa15801562000299573d6000803e3d6000fd5b505050506040513d601f19601f82011682018060405250810190620002bf919062000451565b60e083901b6001600160e01b03199081169116145b9392505050565b600080546001600160a01b0390811690831603620002fb57506000919050565b600080546001600160a01b0319166001600160a01b038416908117825560405190917fc9f3c0828967b8c34f2d6bbf6797c2965918320a1b0cd659293a94bff918fecd91a2506001919050565b60008160001904831182151516156200037157634e487b7160e01b600052601160045260246000fd5b500290565b6000826200039457634e487b7160e01b600052601260045260246000fd5b500490565b6001600160a01b0381168114620003af57600080fd5b50565b60008060008060808587031215620003c957600080fd5b8451620003d68162000399565b6020860151909450620003e98162000399565b6040860151909350620003fc8162000399565b6060959095015193969295505050565b6000602082840312156200041f57600080fd5b8151620002d48162000399565b6000602082840312156200043f57600080fd5b815160ff81168114620002d457600080fd5b6000602082840312156200046457600080fd5b81516001600160e01b031981168114620002d457600080fd5b60805160a05160c05160e0516101005161012051611a406200053660003960008181610602015281816114d7015281816115190152818161154d0152818161157a01526115c1015260006106e5015260006111f301526000611420015260008181610185015281816105cb01528181610aba0152610f6201526000818161029b015281816103c5015281816104d3015281816107ce015281816108d5015281816109b001528181610b120152610e7c0152611a406000f3fe608060405234801561001057600080fd5b506004361061012c5760003560e01c806375435703116100ad578063ca0a8f2211610071578063ca0a8f221461032c578063d0532d9114610333578063d2c18f5914610346578063da31cf3c14610359578063db09c3fd1461036257600080fd5b806375435703146102bd5780637f2141c8146102d05780638f001f59146102e35780639a2ca257146102f6578063b31fb2561461030957600080fd5b80632f1605fc116100f45780632f1605fc146101d457806341976e09146101e757806341fee44a146101fa57806357e0c50f146102815780635ddf2be31461029657600080fd5b8063087d31b7146101315780630f2a16321461014c5780631d498ad314610156578063217a4b70146101805780632553b17f146101bf575b600080fd5b610139610392565b6040519081526020015b60405180910390f35b610139620f424081565b61016961016436600461160f565b6103a3565b604080519215158352602083019190915201610143565b6101a77f000000000000000000000000000000000000000000000000000000000000000081565b6040516001600160a01b039091168152602001610143565b6101d26101cd36600461162c565b6103b9565b005b6101d26101e2366004611665565b6104c7565b6101396101f536600461160f565b6105c7565b61024a61020836600461160f565b600260208190526000918252604090912080546001820154919092015460ff808316926101008104909116916001600160a01b03620100009092048216911685565b604080519586529315156020860152911515928401929092526001600160a01b03918216606084015216608082015260a001610143565b6040516357e0c50f60e01b8152602001610143565b6101a77f000000000000000000000000000000000000000000000000000000000000000081565b6101d26102cb36600461160f565b610665565b6101d26102de36600461169f565b6107c2565b6101d26102f13660046116ea565b6108c9565b6101d2610304366004611703565b6109a4565b61031c61031736600461160f565b610a9b565b6040519015158152602001610143565b600161031c565b6101d261034136600461160f565b610b06565b6000546101a7906001600160a01b031681565b61013960015481565b6101a761037036600461160f565b6001600160a01b03908116600090815260026020819052604090912001541690565b6103a0620f4240600a611781565b81565b6000806103af83610c66565b9094909350915050565b336001600160a01b03167f00000000000000000000000000000000000000000000000000000000000000006001600160a01b031663481c6a756040518163ffffffff1660e01b8152600401602060405180830381865afa158015610421573d6000803e3d6000fd5b505050506040513d601f19601f8201168201806040525081019061044591906117a0565b6001600160a01b0316146104745760405162461bcd60e51b815260040161046b906117bd565b60405180910390fd5b8161047e81610a9b565b61049b5760405163981a2a2b60e01b815260040160405180910390fd5b6104a58383610df5565b6104c257604051630d51b37960e21b815260040160405180910390fd5b505050565b336001600160a01b03167f00000000000000000000000000000000000000000000000000000000000000006001600160a01b031663481c6a756040518163ffffffff1660e01b8152600401602060405180830381865afa15801561052f573d6000803e3d6000fd5b505050506040513d601f19601f8201168201806040525081019061055391906117a0565b6001600160a01b0316146105795760405162461bcd60e51b815260040161046b906117bd565b8161058381610a9b565b6105a05760405163981a2a2b60e01b815260040160405180910390fd5b6105aa838361105f565b6104c25760405163d0abfce560e01b815260040160405180910390fd5b60007f00000000000000000000000000000000000000000000000000000000000000006001600160a01b038082169084160361062f576106287f0000000000000000000000000000000000000000000000000000000000000000600a6118c6565b9392505050565b60008061063b85610c66565b915091508161065d576040516348fa9b2b60e11b815260040160405180910390fd5b949350505050565b6000546001600160a01b0316331461069057604051633111da4560e21b815260040160405180910390fd5b60008061069c83610c66565b91509150816106be57604051638a93c04960e01b815260040160405180910390fd5b60006106c98461110a565b90506000828210156106dd578183036106e1565b8282035b90507f0000000000000000000000000000000000000000000000000000000000000000811180610740575061071a620f4240600a611781565b83620f424061072a846064611781565b6107349190611781565b61073e91906118d5565b105b1561075e576040516332d3273560e21b815260040160405180910390fd5b6001600160a01b038086166000818152600260205260408082206001908101805460ff191690911790819055905162010000909104909316927f19986ca6379d8de58c363928f6de20927669b98ab030c431c2f2fee2625961d59190a35050505050565b336001600160a01b03167f00000000000000000000000000000000000000000000000000000000000000006001600160a01b031663481c6a756040518163ffffffff1660e01b8152600401602060405180830381865afa15801561082a573d6000803e3d6000fd5b505050506040513d601f19601f8201168201806040525081019061084e91906117a0565b6001600160a01b0316146108745760405162461bcd60e51b815260040161046b906117bd565b8261087e81610a9b565b61089b5760405163981a2a2b60e01b815260040160405180910390fd5b6108a6848484611125565b6108c357604051630fe8d77760e11b815260040160405180910390fd5b50505050565b336001600160a01b03167f00000000000000000000000000000000000000000000000000000000000000006001600160a01b031663481c6a756040518163ffffffff1660e01b8152600401602060405180830381865afa158015610931573d6000803e3d6000fd5b505050506040513d601f19601f8201168201806040525081019061095591906117a0565b6001600160a01b03161461097b5760405162461bcd60e51b815260040161046b906117bd565b61098481611316565b6109a15760405163f620192160e01b815260040160405180910390fd5b50565b336001600160a01b03167f00000000000000000000000000000000000000000000000000000000000000006001600160a01b031663481c6a756040518163ffffffff1660e01b8152600401602060405180830381865afa158015610a0c573d6000803e3d6000fd5b505050506040513d601f19601f82011682018060405250810190610a3091906117a0565b6001600160a01b031614610a565760405162461bcd60e51b815260040161046b906117bd565b610a60858361105f565b50610a6c858583611125565b610a8957604051630fe8d77760e11b815260040160405180910390fd5b610a938584610df5565b505050505050565b6001600160a01b038082166000818152600260205260408120909290917f00000000000000000000000000000000000000000000000000000000000000009091169003610aeb5750600192915050565b600101546201000090046001600160a01b0316151592915050565b336001600160a01b03167f00000000000000000000000000000000000000000000000000000000000000006001600160a01b031663481c6a756040518163ffffffff1660e01b8152600401602060405180830381865afa158015610b6e573d6000803e3d6000fd5b505050506040513d601f19601f82011682018060405250810190610b9291906117a0565b6001600160a01b031614610bb85760405162461bcd60e51b815260040161046b906117bd565b610bc18161138d565b6109a1576040516393c3b9ab60e01b815260040160405180910390fd5b60006001600160a01b03831615801590610c5d575082826040518163ffffffff1660e01b8152600401602060405180830381865afa158015610c24573d6000803e3d6000fd5b505050506040513d601f19601f82011682018060405250810190610c4891906118f7565b60e083901b6001600160e01b03199081169116145b90505b92915050565b6001600160a01b038082166000908152600260205260408120805460018201549293849360ff811691620100009091041680610cb55760405163981a2a2b60e01b815260040160405180910390fd5b600080826001600160a01b031663feaf968c6040518163ffffffff1660e01b815260040160a060405180830381865afa158015610cf6573d6000803e3d6000fd5b505050506040513d601f19601f82011682018060405250810190610d1a9190611940565b5093505092505083158015610d355750610d358282876113f9565b15610de4576001860154600090610100900460ff1615610d5f57610d5883611419565b9050610dd3565b6000846001600160a01b031663313ce5676040518163ffffffff1660e01b8152600401602060405180830381865afa158015610d9f573d6000803e3d6000fd5b505050506040513d601f19601f82011682018060405250810190610dc39190611990565b9050610dcf8482611511565b9150505b60019a909950975050505050505050565b506000988998509650505050505050565b6001600160a01b03808316600090815260026020819052604082200154909190811690831603610e2757506000610c60565b6001600160a01b0383811660009081526002602081905260409091200180546001600160a01b031916918416918217905515611016576040516312fd145b60e31b81526001600160a01b0383811660048301527f000000000000000000000000000000000000000000000000000000000000000016906397e8a2d890602401602060405180830381865afa158015610ec3573d6000803e3d6000fd5b505050506040513d601f19601f82011682018060405250810190610ee791906119b3565b1580610f5a575060405163598fd92b60e11b81526001600160a01b03848116600483015283169063b31fb25690602401602060405180830381865afa158015610f34573d6000803e3d6000fd5b505050506040513d601f19601f82011682018060405250810190610f5891906119b3565b155b80610ff857507f00000000000000000000000000000000000000000000000000000000000000006001600160a01b0316826001600160a01b031663217a4b706040518163ffffffff1660e01b8152600401602060405180830381865afa158015610fc8573d6000803e3d6000fd5b505050506040513d601f19601f82011682018060405250810190610fec91906117a0565b6001600160a01b031614155b156110165760405163f7ebc71360e01b815260040160405180910390fd5b816001600160a01b0316836001600160a01b03167f26f22f8c474f2065d47d555b7f96badf39d94093d6db814098680b098d96a27860405160405180910390a350600192915050565b60006202a30082111561108557604051638f1825c960e01b815260040160405180910390fd5b6001600160a01b03831660009081526002602052604090205482036110ac57506000610c60565b6001600160a01b03831660008181526002602052604090819020849055517f7892d1ac746d3db86c35b555e3c7ddbe78b1a209068eadaf1ad5bfe08a8653a9906110f99085815260200190565b60405180910390a250600192915050565b6000604051630280e1e560e61b815260040160405180910390fd5b60006001600160a01b03831661114e5760405163029a68ed60e41b815260040160405180910390fd5b6001600160a01b03848116600090815260026020526040902060018101549091858116620100009092041614801561118b5750600181015460ff16155b1561119a576000915050610628565b60018101805461ff01600160b01b031916620100006001600160a01b0387160217905560006111c886610c66565b509050806111e957604051638a93c04960e01b815260040160405180910390fd5b83801561127d57507f000000000000000000000000000000000000000000000000000000000000000060ff16856001600160a01b031663313ce5676040518163ffffffff1660e01b8152600401602060405180830381865afa158015611253573d6000803e3d6000fd5b505050506040513d601f19601f820116820180604052508101906112779190611990565b60ff1614155b1561129b57604051636322b92560e11b815260040160405180910390fd5b6001600160a01b038087166000818152600260205260409081902060010180548815156101000261ff001990911617905551918716917ffc4600a47c5e7ea766bb29e689a692a267b8549a1f07afa418b47bdd479e18179061130290881515815260200190565b60405180910390a350600195945050505050565b60006202a30082111561133c57604051638f1825c960e01b815260040160405180910390fd5b600154820361134d57506000919050565b60018290556040518281527fcc859b6b85e71cdf22c35275e400cbd6817f8bdfd829e0d386dbf3edc292ffcc9060200160405180910390a1506001919050565b600080546001600160a01b03908116908316036113ac57506000919050565b600080546001600160a01b0319166001600160a01b038416908117825560405190917fc9f3c0828967b8c34f2d6bbf6797c2965918320a1b0cd659293a94bff918fecd91a2506001919050565b6000808413801561065d57508161141084426119d0565b10949350505050565b60008060007f00000000000000000000000000000000000000000000000000000000000000006001600160a01b031663feaf968c6040518163ffffffff1660e01b815260040160a060405180830381865afa15801561147c573d6000803e3d6000fd5b505050506040513d601f19601f820116820180604052508101906114a09190611940565b509350509250506114b482826001546113f9565b6114d157604051638a93c04960e01b815260040160405180910390fd5b816114fd7f0000000000000000000000000000000000000000000000000000000000000000600a6118c6565b6115079086611781565b61065d91906118d5565b60008160ff167f000000000000000000000000000000000000000000000000000000000000000060ff1603611547575081610c60565b8160ff167f000000000000000000000000000000000000000000000000000000000000000060ff1610156115bb5761159f7f0000000000000000000000000000000000000000000000000000000000000000836119e7565b6115aa90600a6118c6565b6115b490846118d5565b9050610c60565b6115e5827f00000000000000000000000000000000000000000000000000000000000000006119e7565b6115f090600a6118c6565b6115b49084611781565b6001600160a01b03811681146109a157600080fd5b60006020828403121561162157600080fd5b8135610628816115fa565b6000806040838503121561163f57600080fd5b823561164a816115fa565b9150602083013561165a816115fa565b809150509250929050565b6000806040838503121561167857600080fd5b8235611683816115fa565b946020939093013593505050565b80151581146109a157600080fd5b6000806000606084860312156116b457600080fd5b83356116bf816115fa565b925060208401356116cf816115fa565b915060408401356116df81611691565b809150509250925092565b6000602082840312156116fc57600080fd5b5035919050565b600080600080600060a0868803121561171b57600080fd5b8535611726816115fa565b94506020860135611736816115fa565b93506040860135611746816115fa565b925060608601359150608086013561175d81611691565b809150509295509295909350565b634e487b7160e01b600052601160045260246000fd5b600081600019048311821515161561179b5761179b61176b565b500290565b6000602082840312156117b257600080fd5b8151610628816115fa565b6020808252600b908201526a27b7363ca6b0b730b3b2b960a91b604082015260600190565b600181815b8085111561181d5781600019048211156118035761180361176b565b8085161561181057918102915b93841c93908002906117e7565b509250929050565b60008261183457506001610c60565b8161184157506000610c60565b816001811461185757600281146118615761187d565b6001915050610c60565b60ff8411156118725761187261176b565b50506001821b610c60565b5060208310610133831016604e8410600b84101617156118a0575081810a610c60565b6118aa83836117e2565b80600019048211156118be576118be61176b565b029392505050565b6000610c5d60ff841683611825565b6000826118f257634e487b7160e01b600052601260045260246000fd5b500490565b60006020828403121561190957600080fd5b81516001600160e01b03198116811461062857600080fd5b805169ffffffffffffffffffff8116811461193b57600080fd5b919050565b600080600080600060a0868803121561195857600080fd5b61196186611921565b945060208601519350604086015192506060860151915061198460808701611921565b90509295509295909350565b6000602082840312156119a257600080fd5b815160ff8116811461062857600080fd5b6000602082840312156119c557600080fd5b815161062881611691565b6000828210156119e2576119e261176b565b500390565b600060ff821660ff841680821015611a0157611a0161176b565b9003939250505056fea2646970667358221220ce53215e1ac67573f3230026c6066b25acfe457c0f0e57e471bf74f4517a9df164736f6c634300080d0033",
  "devdoc": {
    "kind": "dev",
    "methods": {
      "assetSupported(address)": {
        "details": "Informs if PriceProvider is setup for asset. It does not means PriceProvider can provide price right away. Some providers implementations need time to \"build\" buffer for TWAP price, so price may not be available yet but this method will return true.",
        "params": {
          "_asset": "asset in question"
        },
        "returns": {
          "_0": "TRUE if asset has been setup, otherwise false"
        }
      },
      "emergencyDisable(address)": {
        "details": "Disables the aggregator for an asset if there is a big discrepancy between the aggregator and the fallback provider. The only way to reenable the asset is by calling setupAsset or setAggregator again. Can only be called by the emergencyManager.",
        "params": {
          "_asset": "Asset for which to disable the aggregator"
        }
      },
      "getAggregatorPrice(address)": {
        "details": "Returns price directly from aggregator using all internal settings except of fallback provider",
        "params": {
          "_asset": "Asset for which we want to get the price"
        }
      },
      "getFallbackProvider(address)": {
        "details": "for liquidation purposes and for compatibility with naming convention we already using in LiquidationHelper we have this method to return on-chain provider that can be useful for liquidation"
      },
      "getPrice(address)": {
        "params": {
          "_asset": "address of an asset for which to read price"
        },
        "returns": {
          "_0": "of asses with 18 decimals, throws when pool is not ready yet to provide price"
        }
      },
      "offChainProvider()": {
        "details": "this is info method for LiquidationHelper",
        "returns": {
          "_0": "bool TRUE if provider is off-chain, means it is not a dex"
        }
      },
      "priceProviderPing()": {
        "details": "this can save us from simple human errors, in case we use invalid address but this should NOT be treated as security check",
        "returns": {
          "_0": "always true"
        }
      },
      "setAggregator(address,address,bool)": {
        "details": "Sets the aggregator for an asset. Can only be called by the manager.",
        "params": {
          "_aggregator": "Aggregator to set",
          "_asset": "Asset for which to set the aggregator"
        }
      },
      "setEmergencyManager(address)": {
        "details": "Sets the emergencyManager. Can only be called by the manager.",
        "params": {
          "_emergencyManager": "Emergency manager to set"
        }
      },
      "setFallbackPriceProvider(address,address)": {
        "details": "Sets the fallback provider for an asset. Can only be called by the manager.",
        "params": {
          "_asset": "Asset for which to set the fallback provider",
          "_fallbackProvider": "Provider to set"
        }
      },
      "setHeartbeat(address,uint256)": {
        "details": "Sets the heartbeat threshold for an asset. Can only be called by the manager.",
        "params": {
          "_asset": "Asset for which to set the heartbeat threshold",
          "_heartbeat": "Threshold to set"
        }
      },
      "setQuoteAggregatorHeartbeat(uint256)": {
        "details": "Sets the quote aggregator heartbeat threshold. Can only be called by the manager.",
        "params": {
          "_heartbeat": "Threshold to set"
        }
      },
      "setupAsset(address,address,address,uint256,bool)": {
        "details": "Sets the aggregator, fallbackProvider and heartbeat for an asset. Can only be called by the manager.",
        "params": {
          "_aggregator": "Chainlink aggregator proxy",
          "_asset": "Asset to setup",
          "_fallbackProvider": "Provider to use if the price is invalid or if the aggregator was disabled",
          "_heartbeat": "Threshold in seconds to invalidate a stale price"
        }
      }
    },
    "version": 1
  },
  "userdoc": {
    "kind": "user",
    "methods": {
      "getPrice(address)": {
        "notice": "Returns \"Time-Weighted Average Price\" for an asset. Calculates TWAP price for quote/asset. It unifies all tokens decimal to 18, examples: - if asses == quote it returns 1e18 - if asset is USDC and quote is ETH and ETH costs ~$3300 then it returns ~0.0003e18 WETH per 1 USDC"
      },
      "priceProviderPing()": {
        "notice": "Helper method that allows easily detects, if contract is PriceProvider"
      },
      "priceProvidersRepository()": {
        "notice": "PriceProvidersRepository address"
      },
      "quoteToken()": {
        "notice": "Token address which prices are quoted in. Must be the same as PriceProvidersRepository.quoteToken"
      }
    },
    "version": 1
  },
  "storageLayout": {
    "storage": [
      {
        "astId": 720,
        "contract": "contracts/priceProviders/chainlinkV3/ChainlinkV3PriceProviderWithLiquidation.sol:ChainlinkV3PriceProviderWithLiquidation",
        "label": "emergencyManager",
        "offset": 0,
        "slot": "0",
        "type": "t_address"
      },
      {
        "astId": 723,
        "contract": "contracts/priceProviders/chainlinkV3/ChainlinkV3PriceProviderWithLiquidation.sol:ChainlinkV3PriceProviderWithLiquidation",
        "label": "quoteAggregatorHeartbeat",
        "offset": 0,
        "slot": "1",
        "type": "t_uint256"
      },
      {
        "astId": 729,
        "contract": "contracts/priceProviders/chainlinkV3/ChainlinkV3PriceProviderWithLiquidation.sol:ChainlinkV3PriceProviderWithLiquidation",
        "label": "assetData",
        "offset": 0,
        "slot": "2",
        "type": "t_mapping(t_address,t_struct(AssetData)685_storage)"
      }
    ],
    "types": {
      "t_address": {
        "encoding": "inplace",
        "label": "address",
        "numberOfBytes": "20"
      },
      "t_bool": {
        "encoding": "inplace",
        "label": "bool",
        "numberOfBytes": "1"
      },
      "t_contract(AggregatorV3Interface)45": {
        "encoding": "inplace",
        "label": "contract AggregatorV3Interface",
        "numberOfBytes": "20"
      },
      "t_contract(IPriceProvider)389": {
        "encoding": "inplace",
        "label": "contract IPriceProvider",
        "numberOfBytes": "20"
      },
      "t_mapping(t_address,t_struct(AssetData)685_storage)": {
        "encoding": "mapping",
        "key": "t_address",
        "label": "mapping(address => struct ChainlinkV3PriceProvider.AssetData)",
        "numberOfBytes": "32",
        "value": "t_struct(AssetData)685_storage"
      },
      "t_struct(AssetData)685_storage": {
        "encoding": "inplace",
        "label": "struct ChainlinkV3PriceProvider.AssetData",
        "members": [
          {
            "astId": 674,
            "contract": "contracts/priceProviders/chainlinkV3/ChainlinkV3PriceProviderWithLiquidation.sol:ChainlinkV3PriceProviderWithLiquidation",
            "label": "heartbeat",
            "offset": 0,
            "slot": "0",
            "type": "t_uint256"
          },
          {
            "astId": 676,
            "contract": "contracts/priceProviders/chainlinkV3/ChainlinkV3PriceProviderWithLiquidation.sol:ChainlinkV3PriceProviderWithLiquidation",
            "label": "forceFallback",
            "offset": 0,
            "slot": "1",
            "type": "t_bool"
          },
          {
            "astId": 678,
            "contract": "contracts/priceProviders/chainlinkV3/ChainlinkV3PriceProviderWithLiquidation.sol:ChainlinkV3PriceProviderWithLiquidation",
            "label": "convertToQuote",
            "offset": 1,
            "slot": "1",
            "type": "t_bool"
          },
          {
            "astId": 681,
            "contract": "contracts/priceProviders/chainlinkV3/ChainlinkV3PriceProviderWithLiquidation.sol:ChainlinkV3PriceProviderWithLiquidation",
            "label": "aggregator",
            "offset": 2,
            "slot": "1",
            "type": "t_contract(AggregatorV3Interface)45"
          },
          {
            "astId": 684,
            "contract": "contracts/priceProviders/chainlinkV3/ChainlinkV3PriceProviderWithLiquidation.sol:ChainlinkV3PriceProviderWithLiquidation",
            "label": "fallbackProvider",
            "offset": 0,
            "slot": "2",
            "type": "t_contract(IPriceProvider)389"
          }
        ],
        "numberOfBytes": "96"
      },
      "t_uint256": {
        "encoding": "inplace",
        "label": "uint256",
        "numberOfBytes": "32"
      }
    }
  }
}