{
  "address": "0x1781452eD27BbA7fA8932b2D839F244FaCd23a27",
  "abi": [
    {
      "inputs": [
        {
          "internalType": "contract IPriceProvidersRepository",
          "name": "_priceProvidersRepository",
          "type": "address"
        }
      ],
      "stateMutability": "nonpayable",
      "type": "constructor"
    },
    {
      "inputs": [],
      "name": "AssetNotSupported",
      "type": "error"
    },
    {
      "inputs": [],
      "name": "InvalidAssetAddress",
      "type": "error"
    },
    {
      "inputs": [],
      "name": "InvalidPool",
      "type": "error"
    },
    {
      "inputs": [],
      "name": "TokenIsNotAContract",
      "type": "error"
    },
    {
      "inputs": [],
      "name": "ZeroPrice",
      "type": "error"
    },
    {
      "inputs": [],
      "name": "ASSET",
      "outputs": [
        {
          "internalType": "address",
          "name": "",
          "type": "address"
        }
      ],
      "stateMutability": "view",
      "type": "function"
    },
    {
      "inputs": [],
      "name": "BASE_POOL_ASSET",
      "outputs": [
        {
          "internalType": "address",
          "name": "",
          "type": "address"
        }
      ],
      "stateMutability": "view",
      "type": "function"
    },
    {
      "inputs": [],
      "name": "POOL",
      "outputs": [
        {
          "internalType": "contract ICrvUSDPoolWithOracleLike",
          "name": "",
          "type": "address"
        }
      ],
      "stateMutability": "view",
      "type": "function"
    },
    {
      "inputs": [
        {
          "internalType": "address",
          "name": "_asset",
          "type": "address"
        }
      ],
      "name": "assetSupported",
      "outputs": [
        {
          "internalType": "bool",
          "name": "",
          "type": "bool"
        }
      ],
      "stateMutability": "view",
      "type": "function"
    },
    {
      "inputs": [
        {
          "internalType": "address",
          "name": "_asset",
          "type": "address"
        }
      ],
      "name": "getPrice",
      "outputs": [
        {
          "internalType": "uint256",
          "name": "price",
          "type": "uint256"
        }
      ],
      "stateMutability": "view",
      "type": "function"
    },
    {
      "inputs": [],
      "name": "priceProviderPing",
      "outputs": [
        {
          "internalType": "bytes4",
          "name": "",
          "type": "bytes4"
        }
      ],
      "stateMutability": "pure",
      "type": "function"
    },
    {
      "inputs": [],
      "name": "priceProvidersRepository",
      "outputs": [
        {
          "internalType": "contract IPriceProvidersRepository",
          "name": "",
          "type": "address"
        }
      ],
      "stateMutability": "view",
      "type": "function"
    },
    {
      "inputs": [],
      "name": "quoteToken",
      "outputs": [
        {
          "internalType": "address",
          "name": "",
          "type": "address"
        }
      ],
      "stateMutability": "view",
      "type": "function"
    }
  ],
  "transactionHash": "0x6a21da38b982c1f6d95f77824ec8f863878b899497bcc793b28e9cdbd419c581",
  "args": [
    "0xa40111994F44C8add82eF495269e19109c9A982A"
  ],
  "numDeployments": 1,
  "solcInputHash": "825afe7925e0bb6d1c981de145744e39",
  "bytecode": "0x6101206040523480156200001257600080fd5b506040516200101238038062001012833981016040819052620000359162000572565b8073f939e0a03fb07f59a73314e73794be0e57ac1b4e73a0b86991c6218b36c1d19d4a2e9eb0ce3606eb48734dece678ceceb27446b35c672dc7d61f30bad69e83836040518060400160405280600681526020016518dc9d9554d160d21b81525082620000bb816001600160a01b031663eec3e6a7620002bc60201b620003b81760201c565b6200010c5760405162461bcd60e51b815260206004820152601e60248201527f496e76616c6964507269636550726f76696465725265706f7369746f72790000604482015260640160405180910390fd5b6001600160a01b038116608081905260408051630217a4b760e41b8152905163217a4b70916004808201926020929091908290030181865afa15801562000157573d6000803e3d6000fd5b505050506040513d601f19601f820116820180604052508101906200017d919062000572565b6001600160a01b031660a052506040516200019d908290602001620005c5565b60405160208183030381529060405280519060200120620001c9836200034660201b6200043e1760201c565b604051602001620001db9190620005c5565b60405160208183030381529060405280519060200120146200021057604051630ccd248560e21b815260040160405180910390fd5b506001600160a01b0390811660c05283811661010052821660e0819052604080516386fc88d360e01b815290519192506386fc88d39160048083019260209291908290030181865afa1580156200026b573d6000803e3d6000fd5b505050506040513d601f19601f82011682018060405250810190620002919190620005fa565b600003620002b15760405162820f3560e61b815260040160405180910390fd5b505050505062000773565b60006001600160a01b038316158015906200033f575082826040518163ffffffff1660e01b8152600401602060405180830381865afa15801562000304573d6000803e3d6000fd5b505050506040513d601f19601f820116820180604052508101906200032a919062000614565b60e083901b6001600160e01b03199081169116145b9392505050565b6040805160048152602481019091526020810180516001600160e01b039081166395d89b4160e01b1790915260609160009182916200038991869190620003fa16565b915091508115806200039a57508051155b15620003c05750506040805180820190915260018152603f60f81b602082015292915050565b6020815103620003dd57620003d581620004c9565b949350505050565b80806020019051810190620003d5919062000656565b5050919050565b6000606062000414846200055360201b620004dd1760201c565b62000432576040516373d39f9d60e01b815260040160405180910390fd5b600080856001600160a01b0316856040516200044f91906200070e565b600060405180830381855afa9150503d80600081146200048c576040519150601f19603f3d011682016040523d82523d6000602084013e62000491565b606091505b509150915081620004ba57600060405180602001604052806000815250935093505050620004c2565b600193509150505b9250929050565b805160609060005b81811015620003f357838181518110620004ef57620004ef6200072c565b01602001516001600160f81b031916156200054a57828482815181106200051a576200051a6200072c565b602001015160f81c60f81b6040516020016200053892919062000742565b60405160208183030381529060405292505b600101620004d1565b3b151590565b6001600160a01b03811681146200056f57600080fd5b50565b6000602082840312156200058557600080fd5b81516200033f8162000559565b60005b83811015620005af57818101518382015260200162000595565b83811115620005bf576000848401525b50505050565b6020815260008251806020840152620005e681604085016020870162000592565b601f01601f19169190910160400192915050565b6000602082840312156200060d57600080fd5b5051919050565b6000602082840312156200062757600080fd5b81516001600160e01b0319811681146200033f57600080fd5b634e487b7160e01b600052604160045260246000fd5b6000602082840312156200066957600080fd5b81516001600160401b03808211156200068157600080fd5b818401915084601f8301126200069657600080fd5b815181811115620006ab57620006ab62000640565b604051601f8201601f19908116603f01168101908382118183101715620006d657620006d662000640565b81604052828152876020848701011115620006f057600080fd5b6200070383602083016020880162000592565b979650505050505050565b600082516200072281846020870162000592565b9190910192915050565b634e487b7160e01b600052603260045260246000fd5b600083516200075681846020880162000592565b6001600160f81b0319939093169190920190815260010192915050565b60805160a05160c05160e05161010051610839620007d96000396000818161013301526102dd015260008181610181015261024601526000818160f7015281816101b301526101f701526000609201526000818161015a015261030b01526108396000f3fe608060405234801561001057600080fd5b50600436106100885760003560e01c80635b5a41661161005b5780635b5a41661461012e5780635ddf2be3146101555780637535d2461461017c578063b31fb256146101a357600080fd5b8063217a4b701461008d57806341976e09146100d15780634800d97f146100f257806357e0c50f14610119575b600080fd5b6100b47f000000000000000000000000000000000000000000000000000000000000000081565b6040516001600160a01b0390911681526020015b60405180910390f35b6100e46100df366004610616565b6101f3565b6040519081526020016100c8565b6100b47f000000000000000000000000000000000000000000000000000000000000000081565b6040516357e0c50f60e01b81526020016100c8565b6100b47f000000000000000000000000000000000000000000000000000000000000000081565b6100b47f000000000000000000000000000000000000000000000000000000000000000081565b6100b47f000000000000000000000000000000000000000000000000000000000000000081565b6101e36101b1366004610616565b7f00000000000000000000000000000000000000000000000000000000000000006001600160a01b0390811691161490565b60405190151581526020016100c8565b60007f00000000000000000000000000000000000000000000000000000000000000006001600160a01b03908116908316146102425760405163981a2a2b60e01b815260040160405180910390fd5b60007f00000000000000000000000000000000000000000000000000000000000000006001600160a01b03166386fc88d36040518163ffffffff1660e01b8152600401602060405180830381865afa1580156102a2573d6000803e3d6000fd5b505050506040513d601f19601f820116820180604052508101906102c6919061063f565b6040516341976e0960e01b81526001600160a01b037f0000000000000000000000000000000000000000000000000000000000000000811660048301529192506000917f000000000000000000000000000000000000000000000000000000000000000016906341976e0990602401602060405180830381865afa158015610352573d6000803e3d6000fd5b505050506040513d601f19601f82011682018060405250810190610376919061063f565b90506103828183610658565b670de0b6b3a76400009004925060008390036103b157604051634dfba02360e01b815260040160405180910390fd5b5050919050565b60006001600160a01b03831615801590610437575082826040518163ffffffff1660e01b8152600401602060405180830381865afa1580156103fe573d6000803e3d6000fd5b505050506040513d601f19601f820116820180604052508101906104229190610685565b60e083901b6001600160e01b03199081169116145b9392505050565b6040805160048152602481019091526020810180516001600160e01b03166395d89b4160e01b179052606090600090819061047a9085906104e3565b9150915081158061048a57508051155b156104af5750506040805180820190915260018152603f60f81b602082015292915050565b60208151036104c9576104c181610597565b949350505050565b808060200190518101906104c191906106f5565b3b151590565b60006060833b610506576040516373d39f9d60e01b815260040160405180910390fd5b600080856001600160a01b03168560405161052191906107a2565b600060405180830381855afa9150503d806000811461055c576040519150601f19603f3d011682016040523d82523d6000602084013e610561565b606091505b50915091508161058857600060405180602001604052806000815250935093505050610590565b600193509150505b9250929050565b805160609060005b818110156103b1578381815181106105b9576105b96107be565b01602001516001600160f81b0319161561060e57828482815181106105e0576105e06107be565b602001015160f81c60f81b6040516020016105fc9291906107d4565b60405160208183030381529060405292505b60010161059f565b60006020828403121561062857600080fd5b81356001600160a01b038116811461043757600080fd5b60006020828403121561065157600080fd5b5051919050565b600081600019048311821515161561068057634e487b7160e01b600052601160045260246000fd5b500290565b60006020828403121561069757600080fd5b81516001600160e01b03198116811461043757600080fd5b634e487b7160e01b600052604160045260246000fd5b60005b838110156106e05781810151838201526020016106c8565b838111156106ef576000848401525b50505050565b60006020828403121561070757600080fd5b815167ffffffffffffffff8082111561071f57600080fd5b818401915084601f83011261073357600080fd5b815181811115610745576107456106af565b604051601f8201601f19908116603f0116810190838211818310171561076d5761076d6106af565b8160405282815287602084870101111561078657600080fd5b6107978360208301602088016106c5565b979650505050505050565b600082516107b48184602087016106c5565b9190910192915050565b634e487b7160e01b600052603260045260246000fd5b600083516107e68184602088016106c5565b6001600160f81b031993909316919092019081526001019291505056fea26469706673582212202586d3684d7642203b811e889dffeabdc94111d1a33a10ab8444666d0d658f5564736f6c634300080d0033",
  "devdoc": {
    "details": "crvUSD price provider that resolves a price via crvUSD/USDC pool IT IS NOT PART OF THE PROTOCOL. SILO CREATED THIS TOOL, MOSTLY AS AN EXAMPLE.",
    "kind": "dev",
    "methods": {
      "assetSupported(address)": {
        "params": {
          "_asset": "address of an asset"
        }
      },
      "getPrice(address)": {
        "params": {
          "_asset": "address of an asset for which to read price"
        },
        "returns": {
          "price": "of asses with 18 decimals, throws when pool is not ready yet to provide price"
        }
      },
      "priceProviderPing()": {
        "details": "this can save us from simple human errors, in case we use invalid address but this should NOT be treated as security check",
        "returns": {
          "_0": "always true"
        }
      }
    },
    "version": 1
  },
  "userdoc": {
    "kind": "user",
    "methods": {
      "assetSupported(address)": {
        "notice": "Only ASSET token is supported, false otherwise."
      },
      "getPrice(address)": {
        "notice": "Returns \"Time-Weighted Average Price\" for an asset. Calculates TWAP price for quote/asset. It unifies all tokens decimal to 18, examples: - if asses == quote it returns 1e18 - if asset is USDC and quote is ETH and ETH costs ~$3300 then it returns ~0.0003e18 WETH per 1 USDC"
      },
      "priceProviderPing()": {
        "notice": "Helper method that allows easily detects, if contract is PriceProvider"
      },
      "priceProvidersRepository()": {
        "notice": "PriceProvidersRepository address"
      },
      "quoteToken()": {
        "notice": "Token address which prices are quoted in. Must be the same as PriceProvidersRepository.quoteToken"
      }
    },
    "version": 1
  },
  "storageLayout": {
    "storage": [],
    "types": null
  }
}