{
  "address": "0x92d238366dc5EEB63926f61Df208DbE923D5FEC0",
  "abi": [
    {
      "inputs": [],
      "stateMutability": "nonpayable",
      "type": "constructor"
    },
    {
      "inputs": [],
      "name": "InvalidAsset",
      "type": "error"
    },
    {
      "inputs": [],
      "name": "InvalidCalculationResult",
      "type": "error"
    },
    {
      "inputs": [],
      "name": "CRV_USD",
      "outputs": [
        {
          "internalType": "contract IERC20",
          "name": "",
          "type": "address"
        }
      ],
      "stateMutability": "view",
      "type": "function"
    },
    {
      "inputs": [],
      "name": "TRI_CRV_POOL",
      "outputs": [
        {
          "internalType": "address",
          "name": "",
          "type": "address"
        }
      ],
      "stateMutability": "view",
      "type": "function"
    },
    {
      "inputs": [],
      "name": "WETH",
      "outputs": [
        {
          "internalType": "contract IERC20",
          "name": "",
          "type": "address"
        }
      ],
      "stateMutability": "view",
      "type": "function"
    },
    {
      "inputs": [
        {
          "internalType": "address",
          "name": "_asset",
          "type": "address"
        },
        {
          "internalType": "uint256",
          "name": "_crvUsdToBuy",
          "type": "uint256"
        }
      ],
      "name": "towardsAsset",
      "outputs": [
        {
          "internalType": "address",
          "name": "tokenOut",
          "type": "address"
        },
        {
          "internalType": "uint256",
          "name": "wethIn",
          "type": "uint256"
        }
      ],
      "stateMutability": "nonpayable",
      "type": "function"
    },
    {
      "inputs": [
        {
          "internalType": "address",
          "name": "_asset",
          "type": "address"
        },
        {
          "internalType": "uint256",
          "name": "_crvUsdToSell",
          "type": "uint256"
        }
      ],
      "name": "towardsNative",
      "outputs": [
        {
          "internalType": "address",
          "name": "tokenOut",
          "type": "address"
        },
        {
          "internalType": "uint256",
          "name": "amountOut",
          "type": "uint256"
        }
      ],
      "stateMutability": "nonpayable",
      "type": "function"
    }
  ],
  "transactionHash": "0x99c471be0fd223da0cfba60db8f2880a3026b3663848451dcdcc0498a91d37f5",
  "args": [],
  "numDeployments": 1,
  "solcInputHash": "4d862d4d98364fe98bae33f4ae137024",
  "bytecode": "0x60e060405234801561001057600080fd5b50734ebdf703948ddcea3b11f675b4d1fba9d2414a1460805273c02aaa39b223fe8d0a0e5c4f27ead9083c756cc260a05273f939e0a03fb07f59a73314e73794be0e57ac1b4e60c05260805160a05160c0516107346100d36000396000818160ea01528181610138015281816101af01528181610203015261040001526000818160ab015281816101d501526103d90152600081816101110152818161018e0152818161028d01528181610332015281816103b8015261055101526107346000f3fe608060405234801561001057600080fd5b50600436106100575760003560e01c806321ebbf011461005c5780636ea477da14610093578063ad5c4648146100a6578063b10d3a18146100e5578063c7dbfb641461010c575b600080fd5b61006f61006a366004610684565b610133565b604080516001600160a01b0390931683526020830191909152015b60405180910390f35b61006f6100a1366004610684565b6101fe565b6100cd7f000000000000000000000000000000000000000000000000000000000000000081565b6040516001600160a01b03909116815260200161008a565b6100cd7f000000000000000000000000000000000000000000000000000000000000000081565b6100cd7f000000000000000000000000000000000000000000000000000000000000000081565b6000807f00000000000000000000000000000000000000000000000000000000000000006001600160a01b0316846001600160a01b03161461018857604051636448d6e960e11b815260040160405180910390fd5b6101d3837f00000000000000000000000000000000000000000000000000000000000000007f0000000000000000000000000000000000000000000000000000000000000000610429565b7f00000000000000000000000000000000000000000000000000000000000000009590945092505050565b6000807f00000000000000000000000000000000000000000000000000000000000000006001600160a01b0316846001600160a01b03161461025357604051636448d6e960e11b815260040160405180910390fd5b61025c8361052a565b60405163556d6e9f60e01b815260016004820152600060248201819052604482018390529192506001600160a01b037f0000000000000000000000000000000000000000000000000000000000000000169063556d6e9f90606401602060405180830381865afa1580156102d4573d6000803e3d6000fd5b505050506040513d601f19601f820116820180604052508101906102f891906106bc565b9050838110156103b25760405163556d6e9f60e01b815260006004820181905260016024830152670de0b6b3a764000060448301819052917f00000000000000000000000000000000000000000000000000000000000000006001600160a01b03169063556d6e9f90606401602060405180830381865afa158015610381573d6000803e3d6000fd5b505050506040513d601f19601f820116820180604052508101906103a591906106bc565b6103e89004939093019250505b6103fd827f00000000000000000000000000000000000000000000000000000000000000007f00000000000000000000000000000000000000000000000000000000000000006105ca565b507f00000000000000000000000000000000000000000000000000000000000000009250509250929050565b60405163095ea7b360e01b81526001600160a01b038381166004830152602482018590526000919083169063095ea7b3906044016020604051808303816000875af115801561047c573d6000803e3d6000fd5b505050506040513d601f19601f820116820180604052508101906104a091906106d5565b50604051630b68372160e31b8152600060048201526001602482018190526044820186905260648201526001600160a01b03841690635b41b908906084015b6020604051808303816000875af11580156104fe573d6000803e3d6000fd5b505050506040513d601f19601f8201168201806040525081019061052291906106bc565b949350505050565b604051631bf69d3d60e11b81526001600482015260006024820181905260448201839052907f00000000000000000000000000000000000000000000000000000000000000006001600160a01b0316906337ed3a7a90606401602060405180830381865afa1580156105a0573d6000803e3d6000fd5b505050506040513d601f19601f820116820180604052508101906105c491906106bc565b92915050565b60405163095ea7b360e01b81526001600160a01b038381166004830152602482018590526000919083169063095ea7b3906044016020604051808303816000875af115801561061d573d6000803e3d6000fd5b505050506040513d601f19601f8201168201806040525081019061064191906106d5565b50604051630b68372160e31b8152600160048201819052600060248301526044820186905260648201526001600160a01b03841690635b41b908906084016104df565b6000806040838503121561069757600080fd5b82356001600160a01b03811681146106ae57600080fd5b946020939093013593505050565b6000602082840312156106ce57600080fd5b5051919050565b6000602082840312156106e757600080fd5b815180151581146106f757600080fd5b939250505056fea264697066735822122090649d46b77ddc00be62ee68c3ae61cdd3efaebdb21220d48fdc3bc87299dce864736f6c634300080d0033",
  "devdoc": {
    "details": "crvUSD Magician IT IS NOT PART OF THE PROTOCOL. SILO CREATED THIS TOOL, MOSTLY AS AN EXAMPLE.",
    "kind": "dev",
    "methods": {
      "towardsAsset(address,uint256)": {
        "params": {
          "_amount": "Amount of the `_asset`",
          "_asset": "Asset to be wrapped"
        },
        "returns": {
          "tokenOut": "A token that the `_asset` has been converted to",
          "wethIn": "Amount of the quote token that we spent to get `_amoun` of the `_asset`"
        }
      },
      "towardsNative(address,uint256)": {
        "params": {
          "_amount": "Amount of the `_asset`",
          "_asset": "Asset to be unwrapped"
        },
        "returns": {
          "amountOut": "Amount of the `tokenOut` that we received",
          "tokenOut": "A token that the `_asset` has been converted to"
        }
      }
    },
    "version": 1
  },
  "userdoc": {
    "kind": "user",
    "methods": {
      "towardsAsset(address,uint256)": {
        "notice": "Performs operation opposit to `towardsNative`"
      },
      "towardsNative(address,uint256)": {
        "notice": "Operates to unwrap an `_asset`"
      }
    },
    "version": 1
  },
  "storageLayout": {
    "storage": [],
    "types": null
  }
}