{
  "address": "0x2375EBa92e1b7ace8585AE7e2d23feDc10887493",
  "abi": [
    {
      "inputs": [],
      "stateMutability": "nonpayable",
      "type": "constructor"
    },
    {
      "inputs": [],
      "name": "FailedNormalization",
      "type": "error"
    },
    {
      "inputs": [],
      "name": "InvalidAsset",
      "type": "error"
    },
    {
      "inputs": [],
      "name": "InvalidCalculationResult",
      "type": "error"
    },
    {
      "inputs": [],
      "name": "CRV_USD",
      "outputs": [
        {
          "internalType": "contract IERC20",
          "name": "",
          "type": "address"
        }
      ],
      "stateMutability": "view",
      "type": "function"
    },
    {
      "inputs": [],
      "name": "CRV_USD_USDT_POOL",
      "outputs": [
        {
          "internalType": "address",
          "name": "",
          "type": "address"
        }
      ],
      "stateMutability": "view",
      "type": "function"
    },
    {
      "inputs": [],
      "name": "TRICRYPTO_2_POOL",
      "outputs": [
        {
          "internalType": "address",
          "name": "",
          "type": "address"
        }
      ],
      "stateMutability": "view",
      "type": "function"
    },
    {
      "inputs": [],
      "name": "USDT",
      "outputs": [
        {
          "internalType": "contract IERC20",
          "name": "",
          "type": "address"
        }
      ],
      "stateMutability": "view",
      "type": "function"
    },
    {
      "inputs": [],
      "name": "WETH",
      "outputs": [
        {
          "internalType": "contract IERC20",
          "name": "",
          "type": "address"
        }
      ],
      "stateMutability": "view",
      "type": "function"
    },
    {
      "inputs": [
        {
          "internalType": "address",
          "name": "_asset",
          "type": "address"
        },
        {
          "internalType": "uint256",
          "name": "_crvUsdToBuy",
          "type": "uint256"
        }
      ],
      "name": "towardsAsset",
      "outputs": [
        {
          "internalType": "address",
          "name": "tokenOut",
          "type": "address"
        },
        {
          "internalType": "uint256",
          "name": "wehtIn",
          "type": "uint256"
        }
      ],
      "stateMutability": "nonpayable",
      "type": "function"
    },
    {
      "inputs": [
        {
          "internalType": "address",
          "name": "_asset",
          "type": "address"
        },
        {
          "internalType": "uint256",
          "name": "_crvUsdToSell",
          "type": "uint256"
        }
      ],
      "name": "towardsNative",
      "outputs": [
        {
          "internalType": "address",
          "name": "tokenOut",
          "type": "address"
        },
        {
          "internalType": "uint256",
          "name": "amountOut",
          "type": "uint256"
        }
      ],
      "stateMutability": "nonpayable",
      "type": "function"
    }
  ],
  "transactionHash": "0x79313070e1b3bc8745844bdef538880a0c898d1fc03295ba63a889d6eb556051",
  "args": [],
  "numDeployments": 2,
  "solcInputHash": "7e0356c2317fa1981abff500b7db5ab7",
  "bytecode": "0x61012060405234801561001157600080fd5b5073d51a44d3fae010294c616388b506acda1bfaae4660805273390f3595bca2df7d23783dfd126427cceb997bf460a05273c02aaa39b223fe8d0a0e5c4f27ead9083c756cc260c05273dac17f958d2ee523a2206206994597c13d831ec760e05273f939e0a03fb07f59a73314e73794be0e57ac1b4e6101005260805160a05160c05160e051610100516110a96101366000396000818161015e015281816101ac01528181610289015281816102e5015261049d01526000818161018501528181610222015261042801526000818161013701528181610243015281816102b7015261046f01526000818160fd015281816102680152818161035c01526104070152600081816087015281816102010152818161044d015261076001526110a96000f3fe608060405234801561001057600080fd5b506004361061007d5760003560e01c80636ea477da1161005b5780636ea477da1461011f578063ad5c464814610132578063b10d3a1814610159578063c54e44eb1461018057600080fd5b80630a78b5231461008257806321ebbf01146100c6578063379fa8ba146100f8575b600080fd5b6100a97f000000000000000000000000000000000000000000000000000000000000000081565b6040516001600160a01b0390911681526020015b60405180910390f35b6100d96100d4366004610f28565b6101a7565b604080516001600160a01b0390931683526020830191909152016100bd565b6100a97f000000000000000000000000000000000000000000000000000000000000000081565b6100d961012d366004610f28565b6102e0565b6100a97f000000000000000000000000000000000000000000000000000000000000000081565b6100a97f000000000000000000000000000000000000000000000000000000000000000081565b6100a97f000000000000000000000000000000000000000000000000000000000000000081565b6000807f00000000000000000000000000000000000000000000000000000000000000006001600160a01b0316846001600160a01b0316146101fc57604051636448d6e960e11b815260040160405180910390fd5b6102b57f00000000000000000000000000000000000000000000000000000000000000007f00000000000000000000000000000000000000000000000000000000000000007f00000000000000000000000000000000000000000000000000000000000000006102ad877f00000000000000000000000000000000000000000000000000000000000000007f00000000000000000000000000000000000000000000000000000000000000006104c7565b9291906105c8565b7f00000000000000000000000000000000000000000000000000000000000000009590945092505050565b6000807f00000000000000000000000000000000000000000000000000000000000000006001600160a01b0316846001600160a01b03161461033557604051636448d6e960e11b815260040160405180910390fd5b6040516333ef816560e11b81526000600482018190526001602483015260448201859052907f00000000000000000000000000000000000000000000000000000000000000006001600160a01b0316906367df02ca90606401602060405180830381865afa1580156103ab573d6000803e3d6000fd5b505050506040513d601f19601f820116820180604052508101906103cf9190610f60565b905060006103dc82610735565b90935090508181101561040257604051632349714360e21b815260040160405180910390fd5b61049a7f00000000000000000000000000000000000000000000000000000000000000007f0000000000000000000000000000000000000000000000000000000000000000610493867f0000000000000000000000000000000000000000000000000000000000000000837f00000000000000000000000000000000000000000000000000000000000000006107bd565b9190610941565b507f0000000000000000000000000000000000000000000000000000000000000000935050509250929050565b60405163095ea7b360e01b81526001600160a01b038381166004830152602482018590526000919083169063095ea7b3906044016020604051808303816000875af115801561051a573d6000803e3d6000fd5b505050506040513d601f19601f8201168201806040525081019061053e9190610f79565b50604051630f7c084960e21b8152600160048201819052600060248301526044820186905260648201526001600160a01b03841690633df02124906084015b6020604051808303816000875af115801561059c573d6000803e3d6000fd5b505050506040513d601f19601f820116820180604052508101906105c09190610f60565b949350505050565b60006105de6001600160a01b0384168587610999565b6040516370a0823160e01b81523060048201526000906001600160a01b038416906370a0823190602401602060405180830381865afa158015610625573d6000803e3d6000fd5b505050506040513d601f19601f820116820180604052508101906106499190610f60565b604051630b68372160e31b8152600060048201526002602482015260448101889052600160648201529091506001600160a01b03861690635b41b90890608401600060405180830381600087803b1580156106a357600080fd5b505af11580156106b7573d6000803e3d6000fd5b50506040516370a0823160e01b8152306004820152600092506001600160a01b03861691506370a08231906024015b602060405180830381865afa158015610703573d6000803e3d6000fd5b505050506040513d601f19601f820116820180604052508101906107279190610f60565b919091039695505050505050565b6000806000670de0b6b3a7640000905060006040518060e001604052808681526020018381526020017f00000000000000000000000000000000000000000000000000000000000000006001600160a01b03168152602001600281526020016000815260200160128152602001600681525090506107b281610ada565b935093505050915091565b60405163095ea7b360e01b81526001600160a01b038481166004830152602482018690526000919083169063095ea7b3906044016020604051808303816000875af1158015610810573d6000803e3d6000fd5b505050506040513d601f19601f820116820180604052508101906108349190610f79565b506040516370a0823160e01b81523060048201526000906001600160a01b038516906370a0823190602401602060405180830381865afa15801561087c573d6000803e3d6000fd5b505050506040513d601f19601f820116820180604052508101906108a09190610f60565b604051630b68372160e31b8152600260048201526000602482015260448101889052600160648201529091506001600160a01b03861690635b41b90890608401600060405180830381600087803b1580156108fa57600080fd5b505af115801561090e573d6000803e3d6000fd5b50506040516370a0823160e01b8152306004820152600092506001600160a01b03871691506370a08231906024016106e6565b60006109576001600160a01b0383168486610999565b604051630f7c084960e21b8152600060048201526001602482018190526044820186905260648201526001600160a01b03841690633df021249060840161057d565b801580610a135750604051636eb1769f60e11b81523060048201526001600160a01b03838116602483015284169063dd62ed3e90604401602060405180830381865afa1580156109ed573d6000803e3d6000fd5b505050506040513d601f19601f82011682018060405250810190610a119190610f60565b155b610a835760405162461bcd60e51b815260206004820152603660248201527f5361666545524332303a20617070726f76652066726f6d206e6f6e2d7a65726f60448201527520746f206e6f6e2d7a65726f20616c6c6f77616e636560501b60648201526084015b60405180910390fd5b604080516001600160a01b038416602482015260448082018490528251808303909101815260649091019091526020810180516001600160e01b031663095ea7b360e01b179052610ad5908490610c9c565b505050565b604081810151606083015160808401516020850151935163556d6e9f60e01b815260048101929092526024820152604481019290925260009182919082906001600160a01b0383169063556d6e9f90606401602060405180830381865afa158015610b49573d6000803e3d6000fd5b505050506040513d601f19601f82011682018060405250810190610b6d9190610f60565b90506000610b84828760a001518860c00151610d6e565b90506000610b9f87600001518860a001518960c00151610d6e565b90506000818860200151610bb39190610f9b565b905082811015610bc557610bc5610fc8565b828181610bd457610bd4610fde565b0496505b6060880151608089015160405163556d6e9f60e01b815260048101929092526024820152604481018890526001600160a01b0386169063556d6e9f90606401602060405180830381865afa158015610c34573d6000803e3d6000fd5b505050506040513d601f19601f82011682018060405250810190610c589190610f60565b95506000610c6f878a60a001518b60c00151610d6e565b9050828110610c8357505050505050915091565b610c94888a60200151868685610de0565b975050610bd8565b6000610cf1826040518060400160405280602081526020017f5361666545524332303a206c6f772d6c6576656c2063616c6c206661696c6564815250856001600160a01b0316610e1d9092919063ffffffff16565b805190915015610ad55780806020019051810190610d0f9190610f79565b610ad55760405162461bcd60e51b815260206004820152602a60248201527f5361666545524332303a204552433230206f7065726174696f6e20646964206e6044820152691bdd081cdd58d8d9595960b21b6064820152608401610a7a565b6000818303610d7e575082610dd9565b81831015610dc557828203600a0a80851015610dad5760405163059e4a5960e11b815260040160405180910390fd5b808581610dbc57610dbc610fde565b04915050610dd9565b818303600a0a610dd58186610f9b565b9150505b9392505050565b60008183036103e8811015610dfb576103e887019650610e12565b8481870281610e0c57610e0c610fde565b04870196505b509495945050505050565b60606105c0848460008585843b610e765760405162461bcd60e51b815260206004820152601d60248201527f416464726573733a2063616c6c20746f206e6f6e2d636f6e74726163740000006044820152606401610a7a565b600080866001600160a01b03168587604051610e929190611024565b60006040518083038185875af1925050503d8060008114610ecf576040519150601f19603f3d011682016040523d82523d6000602084013e610ed4565b606091505b5091509150610ee4828286610eef565b979650505050505050565b60608315610efe575081610dd9565b825115610f0e5782518084602001fd5b8160405162461bcd60e51b8152600401610a7a9190611040565b60008060408385031215610f3b57600080fd5b82356001600160a01b0381168114610f5257600080fd5b946020939093013593505050565b600060208284031215610f7257600080fd5b5051919050565b600060208284031215610f8b57600080fd5b81518015158114610dd957600080fd5b6000816000190483118215151615610fc357634e487b7160e01b600052601160045260246000fd5b500290565b634e487b7160e01b600052600160045260246000fd5b634e487b7160e01b600052601260045260246000fd5b60005b8381101561100f578181015183820152602001610ff7565b8381111561101e576000848401525b50505050565b60008251611036818460208701610ff4565b9190910192915050565b602081526000825180602084015261105f816040850160208701610ff4565b601f01601f1916919091016040019291505056fea26469706673582212205f279fbbc4c7fb7a5f11e6fb4db90aa199372e792d8f1c67ed09153867f66fa164736f6c634300080d0033",
  "devdoc": {
    "details": "crvUSD Magician IT IS NOT PART OF THE PROTOCOL. SILO CREATED THIS TOOL, MOSTLY AS AN EXAMPLE.",
    "kind": "dev",
    "methods": {
      "towardsAsset(address,uint256)": {
        "params": {
          "_amount": "Amount of the `_asset`",
          "_asset": "Asset to be wrapped"
        },
        "returns": {
          "tokenOut": "A token that the `_asset` has been converted to",
          "wehtIn": "Amount of the quote token that we spent to get `_amoun` of the `_asset`"
        }
      },
      "towardsNative(address,uint256)": {
        "params": {
          "_amount": "Amount of the `_asset`",
          "_asset": "Asset to be unwrapped"
        },
        "returns": {
          "amountOut": "Amount of the `tokenOut` that we received",
          "tokenOut": "A token that the `_asset` has been converted to"
        }
      }
    },
    "version": 1
  },
  "userdoc": {
    "kind": "user",
    "methods": {
      "towardsAsset(address,uint256)": {
        "notice": "Performs operation opposit to `towardsNative`"
      },
      "towardsNative(address,uint256)": {
        "notice": "Operates to unwrap an `_asset`"
      }
    },
    "version": 1
  },
  "storageLayout": {
    "storage": [],
    "types": null
  }
}