{
  "address": "0x9DEaA1Af59932c0D71DE6C04e50581f4605bE416",
  "abi": [
    {
      "inputs": [],
      "stateMutability": "nonpayable",
      "type": "constructor"
    },
    {
      "inputs": [],
      "name": "InvalidAsset",
      "type": "error"
    },
    {
      "inputs": [],
      "name": "CRV",
      "outputs": [
        {
          "internalType": "contract IERC20",
          "name": "",
          "type": "address"
        }
      ],
      "stateMutability": "view",
      "type": "function"
    },
    {
      "inputs": [],
      "name": "TRI_CRV_POOL",
      "outputs": [
        {
          "internalType": "address",
          "name": "",
          "type": "address"
        }
      ],
      "stateMutability": "view",
      "type": "function"
    },
    {
      "inputs": [],
      "name": "WETH",
      "outputs": [
        {
          "internalType": "contract IERC20",
          "name": "",
          "type": "address"
        }
      ],
      "stateMutability": "view",
      "type": "function"
    },
    {
      "inputs": [
        {
          "internalType": "address",
          "name": "_asset",
          "type": "address"
        },
        {
          "internalType": "uint256",
          "name": "_crvToBuy",
          "type": "uint256"
        }
      ],
      "name": "towardsAsset",
      "outputs": [
        {
          "internalType": "address",
          "name": "tokenOut",
          "type": "address"
        },
        {
          "internalType": "uint256",
          "name": "wethIn",
          "type": "uint256"
        }
      ],
      "stateMutability": "nonpayable",
      "type": "function"
    },
    {
      "inputs": [
        {
          "internalType": "address",
          "name": "_asset",
          "type": "address"
        },
        {
          "internalType": "uint256",
          "name": "_crvToSell",
          "type": "uint256"
        }
      ],
      "name": "towardsNative",
      "outputs": [
        {
          "internalType": "address",
          "name": "tokenOut",
          "type": "address"
        },
        {
          "internalType": "uint256",
          "name": "amountOut",
          "type": "uint256"
        }
      ],
      "stateMutability": "nonpayable",
      "type": "function"
    }
  ],
  "transactionHash": "0x26686a1f8e0c22a3c5de37a9627dd3ab904e3abd8fe36fb814886034f077ec1b",
  "args": [],
  "numDeployments": 1,
  "solcInputHash": "7460c0a8b53739f572d36052042f26bf",
  "bytecode": "0x60e060405234801561001057600080fd5b50734ebdf703948ddcea3b11f675b4d1fba9d2414a1460805273c02aaa39b223fe8d0a0e5c4f27ead9083c756cc260a05273d533a949740bb3306d119cc777fa900ba034cd5260c05260805160a05160c0516107366100d36000396000818160ab01528181610138015281816101af01528181610203015261040201526000818160ea015281816101d501526103db0152600081816101110152818161018e0152818161028e01528181610334015281816103ba015261055301526107366000f3fe608060405234801561001057600080fd5b50600436106100575760003560e01c806321ebbf011461005c5780636ea477da14610093578063945c9142146100a6578063ad5c4648146100e5578063c7dbfb641461010c575b600080fd5b61006f61006a366004610686565b610133565b604080516001600160a01b0390931683526020830191909152015b60405180910390f35b61006f6100a1366004610686565b6101fe565b6100cd7f000000000000000000000000000000000000000000000000000000000000000081565b6040516001600160a01b03909116815260200161008a565b6100cd7f000000000000000000000000000000000000000000000000000000000000000081565b6100cd7f000000000000000000000000000000000000000000000000000000000000000081565b6000807f00000000000000000000000000000000000000000000000000000000000000006001600160a01b0316846001600160a01b03161461018857604051636448d6e960e11b815260040160405180910390fd5b6101d3837f00000000000000000000000000000000000000000000000000000000000000007f000000000000000000000000000000000000000000000000000000000000000061042b565b7f00000000000000000000000000000000000000000000000000000000000000009590945092505050565b6000807f00000000000000000000000000000000000000000000000000000000000000006001600160a01b0316846001600160a01b03161461025357604051636448d6e960e11b815260040160405180910390fd5b61025c8361052c565b60405163556d6e9f60e01b81526001600482015260026024820152604481018290529091506000906001600160a01b037f0000000000000000000000000000000000000000000000000000000000000000169063556d6e9f90606401602060405180830381865afa1580156102d5573d6000803e3d6000fd5b505050506040513d601f19601f820116820180604052508101906102f991906106be565b9050838110156103b45760405163556d6e9f60e01b81526002600482015260016024820152670de0b6b3a764000060448201819052906000907f00000000000000000000000000000000000000000000000000000000000000006001600160a01b03169063556d6e9f90606401602060405180830381865afa158015610383573d6000803e3d6000fd5b505050506040513d601f19601f820116820180604052508101906103a791906106be565b6103e89004939093019250505b6103ff827f00000000000000000000000000000000000000000000000000000000000000007f00000000000000000000000000000000000000000000000000000000000000006105cc565b507f00000000000000000000000000000000000000000000000000000000000000009250509250929050565b60405163095ea7b360e01b81526001600160a01b038381166004830152602482018590526000919083169063095ea7b3906044016020604051808303816000875af115801561047e573d6000803e3d6000fd5b505050506040513d601f19601f820116820180604052508101906104a291906106d7565b50604051630b68372160e31b8152600260048201526001602482018190526044820186905260648201526001600160a01b03841690635b41b908906084015b6020604051808303816000875af1158015610500573d6000803e3d6000fd5b505050506040513d601f19601f8201168201806040525081019061052491906106be565b949350505050565b604051631bf69d3d60e11b81526001600482015260026024820152604481018290526000907f00000000000000000000000000000000000000000000000000000000000000006001600160a01b0316906337ed3a7a90606401602060405180830381865afa1580156105a2573d6000803e3d6000fd5b505050506040513d601f19601f820116820180604052508101906105c691906106be565b92915050565b60405163095ea7b360e01b81526001600160a01b038381166004830152602482018590526000919083169063095ea7b3906044016020604051808303816000875af115801561061f573d6000803e3d6000fd5b505050506040513d601f19601f8201168201806040525081019061064391906106d7565b50604051630b68372160e31b8152600160048201819052600260248301526044820186905260648201526001600160a01b03841690635b41b908906084016104e1565b6000806040838503121561069957600080fd5b82356001600160a01b03811681146106b057600080fd5b946020939093013593505050565b6000602082840312156106d057600080fd5b5051919050565b6000602082840312156106e957600080fd5b815180151581146106f957600080fd5b939250505056fea26469706673582212207b910a2412fec177e80a0314e35408ad004a39f55f03704057526b442b64641d64736f6c634300080d0033",
  "devdoc": {
    "details": "CRV Magician IT IS NOT PART OF THE PROTOCOL. SILO CREATED THIS TOOL, MOSTLY AS AN EXAMPLE.",
    "kind": "dev",
    "methods": {
      "towardsAsset(address,uint256)": {
        "params": {
          "_amount": "Amount of the `_asset`",
          "_asset": "Asset to be wrapped"
        },
        "returns": {
          "tokenOut": "A token that the `_asset` has been converted to",
          "wethIn": "Amount of the quote token that we spent to get `_amoun` of the `_asset`"
        }
      },
      "towardsNative(address,uint256)": {
        "params": {
          "_amount": "Amount of the `_asset`",
          "_asset": "Asset to be unwrapped"
        },
        "returns": {
          "amountOut": "Amount of the `tokenOut` that we received",
          "tokenOut": "A token that the `_asset` has been converted to"
        }
      }
    },
    "version": 1
  },
  "userdoc": {
    "kind": "user",
    "methods": {
      "towardsAsset(address,uint256)": {
        "notice": "Performs operation opposit to `towardsNative`"
      },
      "towardsNative(address,uint256)": {
        "notice": "Operates to unwrap an `_asset`"
      }
    },
    "version": 1
  },
  "storageLayout": {
    "storage": [],
    "types": null
  }
}