{
  "address": "0xc60d70867ED895b6CBE056e0c1D0148953742043",
  "abi": [
    {
      "inputs": [],
      "name": "Unsupported",
      "type": "error"
    },
    {
      "inputs": [],
      "name": "CRV_USD",
      "outputs": [
        {
          "internalType": "contract IERC20",
          "name": "",
          "type": "address"
        }
      ],
      "stateMutability": "view",
      "type": "function"
    },
    {
      "inputs": [],
      "name": "FRAX",
      "outputs": [
        {
          "internalType": "contract IERC20",
          "name": "",
          "type": "address"
        }
      ],
      "stateMutability": "view",
      "type": "function"
    },
    {
      "inputs": [],
      "name": "FRX_USDC_POOL",
      "outputs": [
        {
          "internalType": "address",
          "name": "",
          "type": "address"
        }
      ],
      "stateMutability": "view",
      "type": "function"
    },
    {
      "inputs": [],
      "name": "SDAI",
      "outputs": [
        {
          "internalType": "contract IERC20",
          "name": "",
          "type": "address"
        }
      ],
      "stateMutability": "view",
      "type": "function"
    },
    {
      "inputs": [],
      "name": "SDAI_FRAX_POOL",
      "outputs": [
        {
          "internalType": "address",
          "name": "",
          "type": "address"
        }
      ],
      "stateMutability": "view",
      "type": "function"
    },
    {
      "inputs": [],
      "name": "SDAI_SUSDE_POOL",
      "outputs": [
        {
          "internalType": "address",
          "name": "",
          "type": "address"
        }
      ],
      "stateMutability": "view",
      "type": "function"
    },
    {
      "inputs": [],
      "name": "SUSDE",
      "outputs": [
        {
          "internalType": "contract IERC20",
          "name": "",
          "type": "address"
        }
      ],
      "stateMutability": "view",
      "type": "function"
    },
    {
      "inputs": [],
      "name": "TRI_CRV_POOL",
      "outputs": [
        {
          "internalType": "address",
          "name": "",
          "type": "address"
        }
      ],
      "stateMutability": "view",
      "type": "function"
    },
    {
      "inputs": [],
      "name": "USDC",
      "outputs": [
        {
          "internalType": "contract IERC20",
          "name": "",
          "type": "address"
        }
      ],
      "stateMutability": "view",
      "type": "function"
    },
    {
      "inputs": [],
      "name": "USDC_CRV_USD_POOOL",
      "outputs": [
        {
          "internalType": "address",
          "name": "",
          "type": "address"
        }
      ],
      "stateMutability": "view",
      "type": "function"
    },
    {
      "inputs": [],
      "name": "WETH",
      "outputs": [
        {
          "internalType": "address",
          "name": "",
          "type": "address"
        }
      ],
      "stateMutability": "view",
      "type": "function"
    },
    {
      "inputs": [
        {
          "internalType": "address",
          "name": "",
          "type": "address"
        },
        {
          "internalType": "uint256",
          "name": "",
          "type": "uint256"
        }
      ],
      "name": "towardsAsset",
      "outputs": [
        {
          "internalType": "address",
          "name": "",
          "type": "address"
        },
        {
          "internalType": "uint256",
          "name": "",
          "type": "uint256"
        }
      ],
      "stateMutability": "pure",
      "type": "function"
    },
    {
      "inputs": [
        {
          "internalType": "address",
          "name": "_asset",
          "type": "address"
        },
        {
          "internalType": "uint256",
          "name": "_amount",
          "type": "uint256"
        }
      ],
      "name": "towardsNative",
      "outputs": [
        {
          "internalType": "address",
          "name": "tokenOut",
          "type": "address"
        },
        {
          "internalType": "uint256",
          "name": "amountOut",
          "type": "uint256"
        }
      ],
      "stateMutability": "nonpayable",
      "type": "function"
    }
  ],
  "transactionHash": "0xdd11392513e4414ca83f7b0eabe03276dc23e22da1a666bcab832f1ab1f077f7",
  "args": [],
  "numDeployments": 1,
  "solcInputHash": "6c36d79f10eb1e5915538519b046a2a1",
  "bytecode": "0x608060405234801561001057600080fd5b506106fb806100206000396000f3fe608060405234801561001057600080fd5b50600436106100cf5760003560e01c806389a302711161008c578063b10d3a1811610066578063b10d3a18146101f3578063b17032b81461020e578063c7dbfb6414610229578063e25d77a11461024457600080fd5b806389a30271146101a2578063ad5c4648146101bd578063b0e4556f146101d857600080fd5b806321ebbf01146100d4578063307121091461010b57806337e6d6841461013e57806368905b5e146101595780636ea477da146101745780638100913f14610187575b600080fd5b6100e76100e236600461064b565b61025f565b604080516001600160a01b0390931683526020830191909152015b60405180910390f35b610126739d39a5de30e57443bff2a8307a4256c8797a349781565b6040516001600160a01b039091168152602001610102565b61012673167478921b907422f8e88b43c4af2b8bea278d3a81565b61012673ce6431d21e3fb1036ce9973a3312368ed96f5ce781565b6100e761018236600461064b565b6103ba565b6101267383f20f44975d03b1b09e64809b757c47f942beea81565b61012673a0b86991c6218b36c1d19d4a2e9eb0ce3606eb4881565b61012673c02aaa39b223fe8d0a0e5c4f27ead9083c756cc281565b61012673853d955acef822db058eb8505911ed77f175b99e81565b61012673f939e0a03fb07f59a73314e73794be0e57ac1b4e81565b610126734dece678ceceb27446b35c672dc7d61f30bad69e81565b610126734ebdf703948ddcea3b11f675b4d1fba9d2414a1481565b61012673dcef968d416a41cdac0ed8702fac8128a64241a281565b6000806001600160a01b038416739d39a5de30e57443bff2a8307a4256c8797a34971461029f57604051634851657960e11b815260040160405180910390fd5b73c02aaa39b223fe8d0a0e5c4f27ead9083c756cc2915061037c734dece678ceceb27446b35c672dc7d61f30bad69e73a0b86991c6218b36c1d19d4a2e9eb0ce3606eb4861037573dcef968d416a41cdac0ed8702fac8128a64241a273853d955acef822db058eb8505911ed77f175b99e8273ce6431d21e3fb1036ce9973a3312368ed96f5ce77383f20f44975d03b1b09e64809b757c47f942beea61036e8c73167478921b907422f8e88b43c4af2b8bea278d3a739d39a5de30e57443bff2a8307a4256c8797a34976103d6565b91906103d6565b91906104d7565b90506103b181734ebdf703948ddcea3b11f675b4d1fba9d2414a1473f939e0a03fb07f59a73314e73794be0e57ac1b4e610591565b90509250929050565b600080604051634851657960e11b815260040160405180910390fd5b60405163095ea7b360e01b81526001600160a01b038381166004830152602482018590526000919083169063095ea7b3906044016020604051808303816000875af1158015610429573d6000803e3d6000fd5b505050506040513d601f19601f8201168201806040525081019061044d9190610683565b50604051630f7c084960e21b8152600160048201819052600060248301526044820186905260648201526001600160a01b03841690633df02124906084015b6020604051808303816000875af11580156104ab573d6000803e3d6000fd5b505050506040513d601f19601f820116820180604052508101906104cf91906106ac565b949350505050565b60405163095ea7b360e01b81526001600160a01b038381166004830152602482018590526000919083169063095ea7b3906044016020604051808303816000875af115801561052a573d6000803e3d6000fd5b505050506040513d601f19601f8201168201806040525081019061054e9190610683565b50604051630f7c084960e21b8152600060048201526001602482018190526044820186905260648201526001600160a01b03841690633df021249060840161048c565b60405163095ea7b360e01b81526001600160a01b038381166004830152602482018590526000919083169063095ea7b3906044016020604051808303816000875af11580156105e4573d6000803e3d6000fd5b505050506040513d601f19601f820116820180604052508101906106089190610683565b50604051630b68372160e31b8152600060048201526001602482018190526044820186905260648201526001600160a01b03841690635b41b9089060840161048c565b6000806040838503121561065e57600080fd5b82356001600160a01b038116811461067557600080fd5b946020939093013593505050565b60006020828403121561069557600080fd5b815180151581146106a557600080fd5b9392505050565b6000602082840312156106be57600080fd5b505191905056fea26469706673582212209f118914ada82098e00a261be2e0df484c74af35323e851d1784094d823fa49b64736f6c634300080d0033",
  "devdoc": {
    "details": "sUSDe Magician IT IS NOT PART OF THE PROTOCOL. SILO CREATED THIS TOOL, MOSTLY AS AN EXAMPLE.",
    "kind": "dev",
    "methods": {
      "towardsAsset(address,uint256)": {
        "details": "As Curve LP Tokens can be collateral-only assets we skip the implementation of this function"
      },
      "towardsNative(address,uint256)": {
        "params": {
          "_amount": "Amount of the `_asset`",
          "_asset": "Asset to be unwrapped"
        },
        "returns": {
          "amountOut": "Amount of the `tokenOut` that we received",
          "tokenOut": "A token that the `_asset` has been converted to"
        }
      }
    },
    "version": 1
  },
  "userdoc": {
    "kind": "user",
    "methods": {
      "towardsNative(address,uint256)": {
        "notice": "Operates to unwrap an `_asset`"
      }
    },
    "version": 1
  },
  "storageLayout": {
    "storage": [],
    "types": null
  }
}